:100000000C9462000C94F90A0C942C0B0C948A004A
:100010000C948A000C948A000C948A000C948A0038
:100020000C948A000C948A000C948A000C948A0028
:100030000C948A000C948A000C948A000C948A0018
:100040000C94110D0C948A000C94D0000C948A002E
:100050000C948A000C948A000C948A000C948A00F8
:100060000C948A000C948A000000000024002700F1
:100070002A0000000000250028002B0000000000DE
:1000800023002600290004040404040404040202DA
:100090000202020203030303030301020408102007
:1000A0004080010204081020010204081020000012
:1000B0000007000201000003040600000000000029
:1000C0000000CF0511241FBECFEFD8E0DEBFCDBFAB
:1000D00012E0A0E0B1E0E8ECF6E302C005900D927A
:1000E000A432B107D9F712E0A4E2B2E001C01D9238
:1000F000AB3CB107E1F710E0C4ECD0E004C02297BC
:10010000FE010E945E1BC23CD107C9F70E94060D8A
:100110000C94621B0C940000DF93CF9300D000D0AE
:100120000F92CDB7DEB78B837D836C838C819D81ED
:10013000FC01E058FF4F80819181019620E830E07A
:10014000B9010E94C11A9A8389838C819D81FC0127
:10015000EE57FF4F2081318189819A812817390715
:10016000B9F08C819D81FC01E058FF4F20813181E5
:100170008C819D81FC01E20FF31F8B8180838C8138
:100180009D81FC01E058FF4F89819A819183808392
:100190000F900F900F900F900F90CF91DF910895D7
:1001A0001F920F920FB60F9211242F933F934F93EC
:1001B0005F936F937F938F939F93AF93BF93EF93CF
:1001C000FF93DF93CF930F92CDB7DEB7E6ECF0E06D
:1001D0008081898324E232E08981B9010E948C0008
:1001E0000F90CF91DF91FF91EF91BF91AF919F91D0
:1001F0008F917F916F915F914F913F912F910F90D0
:100200000FBE0F901F901895DF93CF9300D0CDB7FE
:10021000DEB79A838983E981FA8180E191E0918355
:1002200080830F900F90CF91DF9108958F92AF92BE
:10023000CF92DF92EF92FF920F931F93DF93CF93B2
:10024000CDB7DEB760970FB6F894DEBF0FBECDBF57
:100250009A8389837C836B835E834D8338872F8366
:100260001A870987FC86EB86DE86CD86AF86888A6C
:1002700089819A810E940401E981FA8184E091E0F8
:1002800091838083E981FA818B819C81938382832E
:10029000E981FA818D819E8195838483E981FA8148
:1002A0008F81988597838683E981FA8189859A85EC
:1002B00091878087E981FA818B859C8593878287E6
:1002C000E981FA818D859E8595878487E981FA8108
:1002D0008F858687E981FA8188898787E981FA8114
:1002E0008D8D808BE981FA818E8D818BE981FA81F8
:1002F0008F8D828B60960FB6F894DEBF0FBECDBF98
:10030000CF91DF911F910F91FF90EF90DF90CF90F1
:10031000AF908F9008958F92AF92CF92DF92EF922D
:10032000FF920F931F93DF93CF93CDB7DEB7609704
:100330000FB6F894DEBF0FBECDBF9A8389837C834E
:100340006B835E834D8338872F831A870987FC86EA
:10035000EB86DE86CD86AF86888A89819A810E9467
:100360000401E981FA8184E091E091838083E9814D
:10037000FA818B819C8193838283E981FA818D81CB
:100380009E8195838483E981FA818F819885978303
:100390008683E981FA8189859A8591878087E981B9
:1003A000FA818B859C8593878287E981FA818D8587
:1003B0009E8595878487E981FA818F858687E98183
:1003C000FA8188898787E981FA818D8D808BE9811F
:1003D000FA818E8D818BE981FA818F8D828B609677
:1003E0000FB6F894DEBF0FBECDBFCF91DF911F9146
:1003F0000F91FF90EF90DF90CF90AF908F90089586
:10040000DF93CF93CDB7DEB72D970FB6F894DEBF4D
:100410000FBECDBF9F838E83488759876A877B87AE
:1004200088859985AA85BB85813422E492072FE0CF
:10043000A20720E0B20718F081E08B83CFC12885A6
:1004400039854A855B8580E894E8AEE1B0E0BC017F
:10045000CD010E94D41ADA01C9010197A109B1099D
:10046000B695A795979587950196A11DB11D880F03
:10047000991FAA1FBB1F880F991FAA1FBB1F880F98
:10048000991FAA1FBB1F880F991FAA1FBB1F9C0182
:10049000AD0180E094E2A4EFB0E0BC01CD010E9488
:1004A000D41ADA01C9012FEF30E040E050E0BC017E
:1004B000CD010E94A21ADC01CB01288539854A852D
:1004C0005B85BC01CD010E94D41ADA01C9019C01EF
:1004D0008FEF90E0821B930B181619060CF04CC09E
:1004E000288539854A855B8580E894E8AEE1B0E0EF
:1004F000BC01CD010E94D41ADA01C9010197A109FA
:10050000B109B695A795979587950196A11DB11D3F
:10051000880F991FAA1FBB1F880F991FAA1FBB1FF7
:10052000880F991FAA1FBB1F880F991FAA1FBB1FE7
:100530009C01AD0180E094E2A4EFB0E0BC01CD01EC
:100540000E94D41ADA01C9012FEF30E040E050E0F8
:10055000BC01CD010E94A21ADC01CB01288539859E
:100560004A855B85BC01CD010E94D41ADA01C9011C
:10057000982F90959D874BC0288539854A855B8546
:1005800080E894E8AEE1B0E0BC01CD010E94D41A4D
:10059000DA01C9010197A109B109B695A795979507
:1005A00087950196A11DB11D880F991FAA1FBB1F1A
:1005B000880F991FAA1FBB1F880F991FAA1FBB1F57
:1005C000880F991FAA1FBB1F9C01AD0180E094E218
:1005D000A4EFB0E0BC01CD010E94D41ADA01C90138
:1005E0002FEF30E040E050E0BC01CD010E94A21AA4
:1005F000DC01CB01288539854A855B85BC01CD01AD
:100600000E94D41ADA01C901282F2F5F2D878D850A
:100610008A83288539854A855B8580E099E0ADE34A
:10062000B0E0BC01CD010E94D41ADA01C9010197E2
:10063000A109B109B695A795979587950196A11D32
:10064000B11D880F991FAA1FBB1F880F991FAA1FD2
:10065000BB1F880F991FAA1FBB1F9C01AD0180E023
:1006600094E2A4EFB0E0BC01CD010E94D41ADA01FB
:10067000C9012FEF30E040E050E0BC01CD010E9405
:10068000A21ADC01CB01288539854A855B85BC012E
:10069000CD010E94D41ADA01C9019C018FEF90E0CC
:1006A000821B930B181619060CF048C02885398553
:1006B0004A855B8580E099E0ADE3B0E0BC01CD0107
:1006C0000E94D41ADA01C9010197A109B109B695AE
:1006D000A795979587950196A11DB11D880F991F24
:1006E000AA1FBB1F880F991FAA1FBB1F880F991F26
:1006F000AA1FBB1F9C01AD0180E094E2A4EFB0E013
:10070000BC01CD010E94D41ADA01C9012FEF30E0FB
:1007100040E050E0BC01CD010E94A21ADC01CB01F7
:10072000288539854A855B85BC01CD010E94D41A94
:10073000DA01C901982F90959C8747C02885398593
:100740004A855B8580E099E0ADE3B0E0BC01CD0176
:100750000E94D41ADA01C9010197A109B109B6951D
:10076000A795979587950196A11DB11D880F991F93
:10077000AA1FBB1F880F991FAA1FBB1F880F991F95
:10078000AA1FBB1F9C01AD0180E094E2A4EFB0E082
:10079000BC01CD010E94D41ADA01C9012FEF30E06B
:1007A00040E050E0BC01CD010E94A21ADC01CB0167
:1007B000288539854A855B85BC01CD010E94D41A04
:1007C000DA01C901282F2F5F2C878C8589831B8232
:1007D0009A818981891710F481E08B838B8188232A
:1007E00049F1EE81FF81A085B185EE81FF8182898B
:1007F000282F30E081E090E002C0880F991F2A95F1
:10080000E2F78C93288539854A855B8580E099E0FD
:10081000ADE3B0E0BC01CD010E94D41ADA01C901F8
:100820000197A109B109B695A795979587959D83DD
:100830008C831DC0EE81FF810084F185E02D108244
:10084000288539854A855B8580E894E8AEE1B0E08B
:10085000BC01CD010E94D41ADA01C9010197A10996
:10086000B109B695A795979587959D838C83EE8161
:10087000FF810480F581E02D8C819D81892F99274E
:100880008083EE81FF810680F781E02D8C8180835B
:10089000EE81FF81A285B385EE81FF810284F3851D
:1008A000E02D8081482FEE81FF818685282F30E062
:1008B00081E090E002C0880F991F2A95E2F7842B0F
:1008C0008C93EE81FF81A285B385EE81FF81028446
:1008D000F385E02D8081482FEE81FF818785282FC9
:1008E00030E081E090E002C0880F991F2A95E2F77E
:1008F000842B8C93EE81FF81A285B385EE81FF81ED
:100900000284F385E02D8081482FEE81FF8180896C
:10091000282F30E081E090E0022E02C0880F991F5E
:100920000A94E2F7842B8C932D960FB6F894DEBFD1
:100930000FBECDBFCF91DF910895DF93CF9300D04D
:10094000CDB7DEB79A838983E981FA818281938169
:10095000FC01E058FF4F808191819C0120583F4F5E
:10096000E981FA8182819381FC01EE57FF4F8081FA
:100970009181A901481B590BCA0120E830E0B90157
:100980000E94C11A0F900F90CF91DF9108950F939D
:100990001F93DF93CF9300D000D00F92CDB7DEB777
:1009A0009B838A83EA81FB8182819381FC01E058E9
:1009B000FF4F20813181EA81FB8182819381FC019B
:1009C000EE57FF4F808191812817390729F42FEFC7
:1009D0003FEF3D832C832FC0EA81FB81228133814D
:1009E000EA81FB8182819381FC01EE57FF4F808178
:1009F0009181F901E80FF91F80818983EA81FB81E8
:100A000002811381EA81FB8182819381FC01EE578F
:100A1000FF4F80819181019620E830E0B9010E946A
:100A2000C11AF801EE57FF4F918380838981282FE7
:100A300030E03D832C838C819D810F900F900F902F
:100A40000F900F90CF91DF911F910F910895DF9339
:100A5000CF9300D0CDB7DEB79A838983E981FA813D
:100A600022813381E981FA8182819381FC01EE57F1
:100A7000FF4F80819181F901E058FF4F918380837E
:100A80000F900F90CF91DF910895DF93CF9300D017
:100A90000F92CDB7DEB79A8389836B83E981FA81A0
:100AA0000084F185E02D8081282F30E0E981FA81F2
:100AB0008189882F90E0A90102C0559547958A95B4
:100AC000E2F7CA0181709070982F81E0892788230E
:100AD00029F7E981FA810484F585E02D8B818083F3
:100AE0000F900F900F90CF91DF9108958F92AF925A
:100AF000CF92DF92EF92FF920F931F93DF93CF93EA
:100B000000D000D0CDB7DEB79A8389837C836B8316
:100B100089819A818130910599F58B819C812FEF94
:100B20008F3F920769F500D00F92EDB7FEB731966F
:100B300028EA32E044E252E087E0808385E0818366
:100B400081E08283C901BA0145EC50E024EC30E039
:100B500000EC10E00F2EF1ECEF2EFF24F02D0F2E05
:100B6000F6ECCF2EDD24F02DAA246894A2F80F2EE7
:100B7000F3E08F2EF02D0E948B010F900F900F90BD
:100B80000F900F900F900F90CF91DF911F910F91C9
:100B9000FF90EF90DF90CF90AF908F900895DF930C
:100BA000CF93CDB7DEB781E090E06FEF7FEF0E948B
:100BB0007605CF91DF910895DF93CF9300D000D0D9
:100BC000CDB7DEB79A8389837C836B8315C0E981B7
:100BD000FA810190F081E02D20813181EB81FC814F
:100BE0008081482F8B819C8101969C838B83898196
:100BF0009A81642FF9010995EB81FC81808188231A
:100C000031F70F900F900F900F90CF91DF910895D3
:100C1000DF93CF93CDB7DEB727970FB6F894DEBF3B
:100C20000FBECDBF9A8389837C836B835E834D83A4
:100C300014C0E981FA810190F081E02D2081318199
:100C4000EB81FC8140818B819C8101969C838B830D
:100C500089819A81642FF90109951F828D819E8176
:100C6000009711F081E08F838D819E8101979E8393
:100C70008D838F818823E9F627960FB6F894DEBF1F
:100C80000FBECDBFCF91DF910895DF93CF9300D0FA
:100C90000F92CDB7DEB79A8389836B83E981FA819E
:100CA0000190F081E02D0190F081E02D89819A8101
:100CB0006B8109950F900F900F90CF91DF91089560
:100CC000DF93CF9300D00F92CDB7DEB79A8389839D
:100CD0006B832B8189819A81622F0E9445060F9038
:100CE0000F900F90CF91DF910895DF93CF9300D0B5
:100CF00000D0CDB7DEB79A8389837C836B83E9818B
:100D0000FA8180819181FC0132960190F081E02D81
:100D100089819A812B813C81B90109950F900F90AF
:100D20000F900F90CF91DF910895DF93CF9300D074
:100D3000CDB7DEB79A83898389819A816DE00E945D
:100D4000600689819A816AE00E9460060F900F9088
:100D5000CF91DF910895DF93CF9300D00F92CDB75D
:100D6000DEB79A8389836B8389819A816B810E9424
:100D7000600689819A810E9495060F900F900F90CE
:100D8000CF91DF910895DF93CF9300D000D0CDB7FE
:100D9000DEB79A8389837C836B8389819A812B81D7
:100DA0003C81B9010E94750689819A810E9495064D
:100DB0000F900F900F900F90CF91DF910895DF93D8
:100DC000CF9300D00F92CDB7DEB79A8389836B8320
:100DD00089819A816B810E94450689819A810E944E
:100DE00095060F900F900F90CF91DF910895EF929D
:100DF000FF920F931F93DF93CF93CDB7DEB7AC97DE
:100E00000FB6F894DEBF0FBECDBF9EA38DA34FA338
:100E100058A769A77AA72BA719821A821B821C825E
:100E20008FA198A5A9A5BAA50097A105B105F1F5CF
:100E30008DA19EA160E30E9460068CC0E980FA80CB
:100E40000B811C818BA5282F30E040E050E08FA162
:100E500098A5A9A5BAA5BC01CD010E94D41ADC01B0
:100E6000CB01282FCE010596FC01EE0DFF1D20833E
:100E700089819A81AB81BC810196A11DB11D8983B5
:100E80009A83AB83BC838BA5282F30E040E050E0F1
:100E90008FA198A5A9A5BAA5BC01CD010E94D41A1D
:100EA000DA01C9018FA398A7A9A7BAA78FA198A50E
:100EB000A9A5BAA50097A105B10509F0BFCF41C00A
:100EC00089819A81AB81BC810197A109B1099E01F9
:100ED0002B5F3F4FF901E80FF91F80818A3088F4BA
:100EE00089819A81AB81BC810197A109B1099E01D9
:100EF0002B5F3F4FF901E80FF91F8081805D8CA7C0
:100F000010C089819A81AB81BC810197A109B10987
:100F10009E012B5F3F4FF901E80FF91F8081895C2B
:100F20008CA78DA19EA16CA50E94600689819A81E3
:100F3000AB81BC810197A109B10989839A83AB83F5
:100F4000BC8389819A81AB81BC810097A105B105E1
:100F500009F0B6CFAC960FB6F894DEBF0FBECDBF8A
:100F6000CF91DF911F910F91FF90EF900895DF9344
:100F7000CF9300D000D000D0CDB7DEB79A8389835D
:100F80004B835C836D837E8389819A812B813C8135
:100F90004D815E81BA01A9012AE00E94F7062696DA
:100FA0000FB6F894DEBF0FBECDBFCF91DF9108958D
:100FB000DF93CF9300D000D000D0CDB7DEB79A83B7
:100FC00089834B835C836D837E8389819A812B81A6
:100FD0003C814D815E81BA01A9010E94B7078981D8
:100FE0009A810E94950626960FB6F894DEBF0FBE32
:100FF000CDBFCF91DF910895DF93CF9300D000D084
:10100000CDB7DEB79A8389837C836B838B819C8188
:101010009C0140E050E089819A81BA01A9010E94B7
:10102000B7070F900F900F900F90CF91DF91089519
:10103000DF93CF9300D000D0CDB7DEB79A838983FA
:101040007C836B8389819A812B813C81B9010E94C9
:10105000FC0789819A810E9495060F900F900F904E
:101060000F90CF91DF910895DF93CF9300D000D000
:1010700000D0CDB7DEB79A8389834B835C836D83C1
:101080007E838B819C81AD81BE81BB23A4F4898149
:101090009A816DE20E9460068B819C81AD81BE8148
:1010A000B095A095909581959F4FAF4FBF4F8B8383
:1010B0009C83AD83BE832B813C814D815E81898180
:1010C0009A81BA01A9012AE00E94F70626960FB676
:1010D000F894DEBF0FBECDBFCF91DF910895DF93AF
:1010E000CF9300D000D000D0CDB7DEB79A838983EC
:1010F0004B835C836D837E8389819A812B813C81C4
:101100004D815E81BA01A9010E94340889819A81CA
:101110000E94950626960FB6F894DEBF0FBECDBF8F
:10112000CF91DF910895DF93CF9300D000D0CDB75A
:10113000DEB79A8389837C836B838B819C819C013E
:10114000442737FD4095542F89819A81BA01A9011E
:101150000E9434080F900F900F900F90CF91DF9165
:101160000895DF93CF9300D000D0CDB7DEB79A8338
:1011700089837C836B8389819A812B813C81B9012E
:101180000E94930889819A810E9495060F900F9082
:101190000F900F90CF91DF910895DF93CF93CDB74C
:1011A000DEB728970FB6F894DEBF0FBECDBF9A8387
:1011B00089834B835C836D837E8338872F838F8104
:1011C0009885009739F42B8189819A81622F0E943A
:1011D00060061CC08F8198858A30910559F48981F9
:1011E0009A812B813C814D815E81BA01A9010E94C7
:1011F00034080CC02B813C814D815E81EF81898157
:101200009A81BA01A9012E2F0E94F70628960FB6DF
:10121000F894DEBF0FBECDBFCF91DF910895DF936D
:10122000CF93CDB7DEB728970FB6F894DEBF0FBEC9
:10123000CDBF9A8389834B835C836D837E8338879C
:101240002F8389819A812B813C814D815E81EF8141
:10125000F885BA01A9019F010E94CD0889819A8170
:101260000E94950628960FB6F894DEBF0FBECDBF3C
:10127000CF91DF910895DF93CF93CDB7DEB7679716
:101280000FB6F894DEBF0FBECDBF998B888B4A8B0B
:101290005B8B6C8B7D8B2E8B6A897B898C899D897E
:1012A00020E030E040E050E00E94F116882374F422
:1012B000888999896DE20E9460068A899B89AC8938
:1012C000BD89B0588A8B9B8BAC8BBD8B80E090E046
:1012D000A0E0BFE38C879D87AE87BF871B8213C0CA
:1012E0006C857D858E859F8520E030E040E251E46D
:1012F0000E941516DC01CB018C879D87AE87BF87C6
:101300008B818F5F8B839B818E89981748F36A89C5
:101310007B898C899D892C853D854E855F850E94C2
:10132000EE14DC01CB018A8B9B8BAC8BBD8B6A8965
:101330007B898C899D890E944513DC01CB018887BC
:101340009987AA87BB87688579858A859B850E944E
:10135000D3179B01AC016A897B898C899D890E9486
:10136000BD14DC01CB018C839D83AE83BF83888950
:101370009989288539854A855B85BA01A9010E942A
:10138000B7078E89882309F441C0888999892AE0A2
:1013900031E0B9010E94750639C06C817D818E8172
:1013A0009F8120E030E040E251E40E941B15DC0107
:1013B000CB018C839D83AE83BF836C817D818E81C5
:1013C0009F810E947F17DC01CB019A8389838889E2
:1013D000998929813A81B9010E94930889819A816A
:1013E000AA2797FDA095BA2FBC01CD010E94211715
:1013F0009B01AC016C817D818E819F810E94BD1417
:10140000DC01CB018C839D83AE83BF838E898F8B60
:101410008F89882311F081E08F8B8F899E8991506D
:101420009E8B882309F0B9CF67960FB6F894DEBF7C
:101430000FBECDBFCF91DF910895DF93CF9300D042
:1014400000D000D0CDB7DEB79A8389834B835C830D
:101450006D837E8389819A812B813C814D815E8160
:10146000BA01A90122E00E943B0926960FB6F89422
:10147000DEBF0FBECDBFCF91DF910895DF93CF9335
:1014800000D000D000D0CDB7DEB79A8389834B83DC
:101490005C836D837E8389819A812B813C814D8120
:1014A0005E81BA01A9010E941D0A89819A810E9468
:1014B000950626960FB6F894DEBF0FBECDBFCF912E
:1014C000DF910895DF93CF93CDB7DEB727970FB69F
:1014D000F894DEBF0FBECDBF89837B836A835D83B3
:1014E0004C838981823008F043C08981882F90E045
:1014F000880F991FFC01E554FD4F8A819B819183E0
:1015000080838981282F30E03F832E838E819F81C5
:10151000009731F02E813F812130310599F028C0AC
:10152000A9E6B0E0E9E6F0E08081982F9C7F8C810D
:10153000892B8C93ADE3B0E0EDE3F0E08081816036
:101540008C9316C0A9E6B0E0E9E6F0E08081282F90
:10155000237F8C819D81880F991F880F991F822B73
:101560008C93ADE3B0E0EDE3F0E0808182608C939A
:1015700027960FB6F894DEBF0FBECDBFCF91DF9197
:101580000895DF93CF9300D00F92CDB7DEB7898354
:101590008981823040F58981282F30E03B832A837E
:1015A0008A819B81009731F02A813B81213031056E
:1015B00049F00FC0ADE3B0E0EDE3F0E080818E7F55
:1015C0008C9307C0ADE3B0E0EDE3F0E080818D7F68
:1015D0008C938981882F90E0880F991FFC01E55436
:1015E000FD4F118210820F900F900F90CF91DF91DD
:1015F00008951F920F920FB60F9211242F933F93CD
:101600004F935F936F937F938F939F93AF93BF930A
:10161000EF93FF93DF93CF93CDB7DEB78091BB02FB
:101620009091BC02009729F0E091BB02F091BC02BE
:101630000995CF91DF91FF91EF91BF91AF919F916C
:101640008F917F916F915F914F913F912F910F906B
:101650000FBE0F901F9018951F920F920FB60F920A
:1016600011242F933F934F935F936F937F938F93A7
:101670009F93AF93BF93EF93FF93DF93CF93CDB738
:10168000DEB78091BD029091BE02009729F0E091F3
:10169000BD02F091BE020995CF91DF91FF91EF91CC
:1016A000BF91AF919F918F917F916F915F914F917A
:1016B0003F912F910F900FBE0F901F901895AF92F2
:1016C000BF92CF92DF92EF92FF920F931F93DF931F
:1016D000CF93CDB7DEB760970FB6F894DEBF0FBEDD
:1016E000CDBF69837A838B839C832D833E834F8315
:1016F0005887E986FA860B871C87AD86BE86CF861B
:10170000D88A29813A814B815C818D819E81AF810C
:10171000B88579018A01E81AF90A0A0B1B0B2D8D8D
:101720003E8D4F8D58A18D859E85AF85B889281B2C
:10173000390B4A0B5B0BC801B7010E94A21A7B014F
:101740008C0129853A854B855C858D819E81AF8191
:10175000B885281B390B4A0B5B0BC801B7010E94E7
:10176000F61ADA01C9019C01AD018D859E85AF8510
:10177000B889820F931FA41FB51FBC01CD016096CD
:101780000FB6F894DEBF0FBECDBFCF91DF911F9192
:101790000F91FF90EF90DF90CF90BF90AF900895A2
:1017A000DF93CF9300D0CDB7DEB79A838983898149
:1017B0009A810F900F90CF91DF910895DF93CF938F
:1017C00000D0CDB7DEB789836A838981882F90E006
:1017D000382F22278A81882F90E0822B932B0F901D
:1017E0000F90CF91DF910895DF93CF93CDB7DEB700
:1017F00028970FB6F894DEBF0FBECDBF69837A83FA
:101800008B839C8389819A81AB81BC810097A105E0
:10181000B10529F41D821E821F82188612C00E9403
:10182000941ADC01CB0129813A814B815C81BC0196
:10183000CD010E94F61ADC01CB018D839E83AF831C
:10184000B8878D819E81AF81B885BC01CD01289676
:101850000FB6F894DEBF0FBECDBFCF91DF910895D4
:10186000EF92FF920F931F93DF93CF93CDB7DEB725
:1018700060970FB6F894DEBF0FBECDBF6D837E8339
:101880008F83988729873A874B875C872D813E8194
:101890004F81588589859A85AB85BC85281739077E
:1018A0004A075B074CF0ED80FE800F811885ED86BE
:1018B000FE860F87188B2CC029853A854B855C8561
:1018C0008D819E81AF81B88579018A01E81AF90A74
:1018D0000A0B1B0BD801C70189839A83AB83BC8396
:1018E00089819A81AB81BC81BC01CD010E94F40B3E
:1018F0009B01AC018D819E81AF81B88579018A0100
:10190000E80EF91E0A1F1B1FED86FE860F87188B37
:101910008D859E85AF85B889BC01CD0160960FB6D7
:10192000F894DEBF0FBECDBFCF91DF911F910F9115
:10193000FF90EF900895DF93CF9300D0CDB7DEB73F
:101940009A83898389819A81009749F089819A8154
:10195000CC01A0E0B0E0BC01CD010E94991A0F902B
:101960000F90CF91DF910895DF93CF93CDB7DEB77E
:10197000F894FFCFDF93CF930F92CDB7DEB722C09D
:1019800088EA92E00E94C7048093BF0280E00E9430
:10199000F20E8093C10281E00E94F20E8093C00299
:1019A0008091BF02882371F08DE061E00E946D108C
:1019B00064E670E080E090E00E94110E8DE060E04F
:1019C0000E946D1088EA92E00E949D0489838981BB
:1019D000882311F081E089838981882389F60F901B
:1019E000CF91DF910895DF93CF93CDB7DEB78DE030
:1019F00061E00E940F1088EA92E040E855E260E062
:101A000070E00E940002CF91DF910895DF93CF93A1
:101A1000CDB7DEB70E94780E0E94F30C0E94BA0C7C
:101A2000FDCF1F920F920FB60F9211248F939F93A9
:101A3000AF93BF93DF93CF9300D000D00F92CDB779
:101A4000DEB78091C6029091C702A091C802B09102
:101A5000C9028A839B83AC83BD838091CA02898338
:101A60008A819B81AC81BD810196A11DB11D8A83B4
:101A70009B83AC83BD8389818D5F898389818D3709
:101A800070F089818D5789838A819B81AC81BD816A
:101A90000196A11DB11D8A839B83AC83BD8389817F
:101AA0008093CA028A819B81AC81BD818093C602EA
:101AB0009093C702A093C802B093C9028091C2025A
:101AC0009091C302A091C402B091C5020196A11DDC
:101AD000B11D8093C2029093C302A093C402B0933D
:101AE000C5020F900F900F900F900F90CF91DF9144
:101AF000BF91AF919F918F910F900FBE0F901F904C
:101B00001895DF93CF9300D000D00F92CDB7DEB7FA
:101B1000EFE5F0E080818983F8948091C60290918E
:101B2000C702A091C802B091C9028A839B83AC838B
:101B3000BD83EFE5F0E0898180838A819B81AC8160
:101B4000BD81BC01CD010F900F900F900F900F90B1
:101B5000CF91DF910895DF93CF93CDB7DEB729976B
:101B60000FB6F894DEBF0FBECDBFEFE5F0E0808189
:101B70008983F894E6E4F0E08081882F90E0A0E08B
:101B8000B0E08A839B83AC83BD83E5E3F0E0808192
:101B9000882F90E081709070882381F08A819B81EA
:101BA000AC81BD810097A105B10541F480E091E0D1
:101BB000A0E0B0E08A839B83AC83BD838091C202A6
:101BC0009091C302A091C402B091C5028E839F83FD
:101BD000A887B987EFE5F0E0898180838E819F81B6
:101BE000A885B9852227382F492F5A2F8A819B81B2
:101BF000AC81BD81820F931FA41FB51F880F991F51
:101C0000AA1FBB1F880F991FAA1FBB1FBC01CD01B4
:101C100029960FB6F894DEBF0FBECDBFCF91DF91EE
:101C20000895DF93CF93CDB7DEB728970FB6F8941A
:101C3000DEBF0FBECDBF6D837E838F8398870E94EA
:101C4000810DDC01CB0189839A83AB83BC830E9425
:101C5000810D9B01AC0189819A81AB81BC81281BDC
:101C6000390B4A0B5B0B8D819E81AF81B885821742
:101C70009307A407B50758F728960FB6F894DEBF68
:101C80000FBECDBFCF91DF910895DF93CF9300D0EA
:101C90000F92CDB7DEB79B838A838A819B810197A0
:101CA0009B838A838A819B810097E1F08A819B8153
:101CB000880F991F880F991F9B838A838A819B8134
:101CC00002979B838A83EFE5F0E080818983F89413
:101CD0008A819B810197F1F79B838A83EFE5F0E08E
:101CE000898180830F900F900F90CF91DF9108959D
:101CF000DF93CF93CDB7DEB77894A4E4B0E0E4E40B
:101D0000F0E0808182608C93A4E4B0E0E4E4F0E051
:101D1000808181608C93A5E4B0E0E5E4F0E080810F
:101D200082608C93A5E4B0E0E5E4F0E0808181601E
:101D30008C93AEE6B0E0EEE6F0E0808181608C93BB
:101D4000A1E8B0E0E1E8F0E0808182608C93A1E856
:101D5000B0E0E1E8F0E0808181608C93A0E8B0E041
:101D6000E0E8F0E0808181608C93A1EBB0E0E1EBF2
:101D7000F0E0808184608C93A0EBB0E0E0EBF0E0D9
:101D8000808181608C93AAE7B0E0EAE7F0E080818F
:101D900084608C93AAE7B0E0EAE7F0E0808182609B
:101DA0008C93AAE7B0E0EAE7F0E0808181608C9351
:101DB000AAE7B0E0EAE7F0E0808180688C93E1EC8C
:101DC000F0E01082CF91DF910895DF93CF930F92CF
:101DD000CDB7DEB789838981809316010F90CF91AB
:101DE000DF910895DF93CF9300D00F92CDB7DEB788
:101DF0008B83ECE7F0E080911601882F90E00024BF
:101E0000969587950794969587950794982F802D9A
:101E1000982F8B818F70892B8083AAE7B0E0EAE747
:101E2000F0E0808180648C93EAE7F0E08081882F85
:101E300090E0807490700097B9F7E8E7F0E0808157
:101E40008A83E9E7F0E0808189838981882F90E0A7
:101E5000382F22278A81882F90E0822B932B0F9096
:101E60000F900F90CF91DF910895DF93CF93CDB76F
:101E7000DEB765970FB6F894DEBF0FBECDBF8B8B74
:101E80007D8B6C8B8B8961E00E940F108B89882F72
:101E900090E082559F4F9A8B898BE989FA898491CA
:101EA000888B8889833071F4A0E8B0E0E0E8F0E046
:101EB000808180688C93E8E8F0E08C899D8991832B
:101EC0008083A4C08B89882F90E082559F4F9F8785
:101ED0008E87EE85FF8584918D878D85843071F4A2
:101EE000A0E8B0E0E0E8F0E0808180628C93EAE86E
:101EF000F0E08C899D899183808388C08B89882FAD
:101F000090E082559F4F9C878B87EB85FC85849161
:101F10008A878A858130A9F48C899D89009729F464
:101F20008B8960E00E946D1071C0A4E4B0E0E4E42D
:101F3000F0E0808180688C93E7E4F0E08C89808316
:101F400065C08B89882F90E082559F4F998788873D
:101F5000E885F98584918F838F818230A9F48C89FB
:101F60009D89009729F48B8960E00E946D104EC016
:101F7000A4E4B0E0E4E4F0E0808180628C93E8E4E3
:101F8000F0E08C89808342C08B89882F90E0825555
:101F90009F4F9E838D83ED81FE8184918C838C8104
:101FA000863061F4A0EBB0E0E0EBF0E08081806887
:101FB0008C93E3EBF0E08C89808328C08B89882F99
:101FC00090E082559F4F9B838A83EA81FB818491B5
:101FD00089838981873061F4A0EBB0E0E0EBF0E029
:101FE000808180628C93E4EBF0E08C8980830EC06A
:101FF0008C899D89803891052CF48B8960E00E9442
:102000006D1004C08B8961E00E946D1065960FB65B
:10201000F894DEBF0FBECDBFCF91DF910895DF935F
:10202000CF93CDB7DEB760970FB6F894DEBF0FBE83
:10203000CDBF8F87688B8F85882F90E086569F4F06
:102040009A878987E985FA858491888788858E872C
:102050008F85882F90E08A579F4F9F838E83EE81D4
:10206000FF8184918D838D818D878D85882361F19A
:102070008D85882F90E0880F991F88599F4F9C83EA
:102080008B838B819C81FC01859194919A838983B8
:10209000FC83EB8389819A819C878B87888988233D
:1020A00059F4EB85FC858081982F8E858095892356
:1020B000EB85FC85808308C0EB85FC8590818E854F
:1020C000892BEB85FC85808360960FB6F894DEBF84
:1020D0000FBECDBFCF91DF910895DF93CF93CDB7E2
:1020E000DEB765970FB6F894DEBF0FBECDBF8C8B01
:1020F0006D8B8C89882F90E082559F4F9E878D87AE
:10210000ED85FE8584918C878C858B8B8C89882FBF
:1021100090E086569F4F9B878A87EA85FB8584914E
:10212000898789858A8B8C89882F90E08A579F4F71
:1021300098878F83EF81F88584918E838E81898B38
:102140008989882309F46EC08B89882309F43EC0ED
:102150008B8989838981833039F4A0E8B0E0E0E895
:10216000F0E080818F778C938981843039F4A0E806
:10217000B0E0E0E8F0E080818F7D8C938981813050
:1021800039F4A4E4B0E0E4E4F0E080818F778C934C
:102190008981823039F4A4E4B0E0E4E4F0E08081A5
:1021A0008F7D8C938981863039F4A0EBB0E0E0EB31
:1021B000F0E080818F778C938981873039F4A0EBB0
:1021C000B0E0E0EBF0E080818F7D8C938989882FEF
:1021D00090E0880F991F8E589F4F9D838C838C8130
:1021E0009D81FC01859194919B838A83FD83EC837F
:1021F0008A819B81988B8F878D89882359F4EF85FD
:10220000F8898081982F8A8980958923EF85F889BC
:10221000808308C0EF85F88990818A89892BEF85B2
:10222000F889808365960FB6F894DEBF0FBECDBFE8
:10223000CF91DF910895DF93CF93CDB7DEB7649749
:102240000FB6F894DEBF0FBECDBF8A8B8A89882F68
:1022500090E082559F4F9E878D87ED85FE85849106
:102260008C878C85898B8A89882F90E086569F4F32
:102270009B878A87EA85FB85849189878985888BF6
:102280008A89882F90E08A579F4F98878F83EF81A4
:10229000F88584918E838E818F878F85882319F4AA
:1022A0001C8A1B8A63C08989882309F43EC08989F6
:1022B00089838981833039F4A0E8B0E0E0E8F0E078
:1022C00080818F778C938981843039F4A0E8B0E0E5
:1022D000E0E8F0E080818F7D8C938981813039F452
:1022E000A4E4B0E0E4E4F0E080818F778C9389810E
:1022F000823039F4A4E4B0E0E4E4F0E080818F7D42
:102300008C938981863039F4A0EBB0E0E0EBF0E00B
:1023100080818F778C938981873039F4A0EBB0E08E
:10232000E0EBF0E080818F7D8C938F85882F90E0AB
:10233000880F991F84589F4F9D838C838C819D812A
:10234000FC01859194919B838A83FD83EC838A8130
:102350009B81FC01908188898923882329F081E071
:1023600090E09C8B8B8B02C01C8A1B8A8B899C897A
:1023700064960FB6F894DEBF0FBECDBFCF91DF914C
:102380000895DF93CF93CDB7DEB7AE970FB6F8942D
:10239000DEBF0FBECDBF8AA36BA32CA33DA34EA36C
:1023A0005FA38AA1882F90E086569F4F9A8B898BD6
:1023B000E989FA898491888B888989A38AA1882FE1
:1023C00090E08A579F4F9F878E87EE85FF85849187
:1023D0008D878D8588A38BA1882319F029A12EA72D
:1023E00001C01EA63EA53F8F1B8E1C8E1D8E1E8E0D
:1023F0001F8A188E198E1A8E8CA19DA1AEA1BFA125
:10240000880F991FAA1FBB1F880F991FAA1FBB1FE8
:10241000880F991FAA1FBB1F880F991FAA1FBB1FD8
:10242000689413F8B695A795979587951694D1F764
:102430008B8B9C8BAD8BBE8B23C01DA62F89388DBB
:10244000498D5A8D8B899C89AD89BE89281739079A
:102450004A075B0711F441E04DA78F89988DA98D3C
:10246000BA8D0196A11DB11D8F8B988FA98FBA8F40
:102470005DA5552329F019A61AA61BA61CA6A2C065
:1024800088A1882F90E0880F991F84589F4F9C87C0
:102490008B878B859C85FC01859194919A87898790
:1024A000FC87EB8789859A85FC01908189A1982317
:1024B0008F8D981709F4C1CF23C018A62F89388DA6
:1024C000498D5A8D8B899C89AD89BE89281739071A
:1024D0004A075B0711F481E088A78F89988DA98D41
:1024E000BA8D0196A11DB11D8F8B988FA98FBA8FC0
:1024F00028A5222329F019A61AA61BA61CA662C08D
:1025000088A1882F90E0880F991F84589F4F988743
:102510008F838F819885FC01859194919E838D8313
:10252000F887EF838D819E81FC01908189A198239A
:102530008F8D981709F0C1CF0BC08B8D9C8DAD8D01
:10254000BE8D0196A11DB11D8B8F9C8FAD8FBE8F4F
:1025500088A1882F90E0880F991F84589F4F9C83F3
:102560008B838B819C81FC01859194919A838983D3
:10257000FC83EB8389819A81FC01908189A1982356
:102580008F8D9817D1F28B8D9C8DAD8DBE8D2AE0ED
:1025900030E040E050E0BC01CD010E94A21ADC0115
:1025A000CB014096A11DB11D9C01AD01689413F8AB
:1025B00056954795379527951694D1F729A73AA7A9
:1025C0004BA75CA789A59AA5ABA5BCA5BC01CD016D
:1025D000AE960FB6F894DEBF0FBECDBFCF91DF91A0
:1025E0000895DF93CF9300D000D000D0CDB7DEB7F1
:1025F0008B836C834D832E831A82198238C08D8120
:10260000882381F48E81882F90E0098002C09595FF
:1026100087950A94E2F7982F91708B81692F0E9419
:102620006D1018C08E81482F50E027E030E089817E
:102630009A81B901681B790BCB019A0102C03595CB
:1026400027958A95E2F7C901982F91708B81692FA0
:102650000E946D108C8161E00E946D108C8160E0A1
:102660000E946D1089819A8101969A83898389815C
:102670009A81883091051CF226960FB6F894DEBF39
:102680000FBECDBFCF91DF910895EF92FF920F93D0
:102690001F937B018C0120E030E040E05FE40E946A
:1026A000C11688238CF0C801B70120E030E040E07B
:1026B0005FE40E94BD140E947F179B01AC01205073
:1026C00030404040504806C0C801B7010E947F1703
:1026D0009B01AC01B901CA011F910F91FF90EF90CE
:1026E0000895A0E0B0E0E7E7F3E10C94251BDC01DE
:1026F0002B01FA019C91923008F439C1EB018881D9
:10270000823008F433C1943069F4843009F02FC169
:1027100011969C9111978981981709F428C1A7E116
:10272000B1E025C1843009F421C18230A9F492308E
:1027300009F01DC19A01AD0188E0EA010990AE01DE
:10274000E90109929E018150C1F7E2018981119648
:102750009C918923818308C1923009F407C11296A4
:102760002D903C901397EB018A819B811496AD903C
:10277000BD90CD90DC901797EC80FD800E811F817D
:102780009101281B390BB90137FF04C06627772751
:10279000621B730B603271050CF061C012161306D8
:1027A0006CF537014801062E04C0969487947794FF
:1027B00067940A94D2F721E030E040E050E004C092
:1027C000220F331F441F551F6A95D2F72150304006
:1027D000404050402E213F214023512321153105F7
:1027E0004105510521F021E030E040E050E0790161
:1027F0008A01E628F728082919293CC0232BD1F1A2
:10280000260E371E35014601062E04C09694879485
:10281000779467940A94D2F721E030E040E050E0EA
:1028200004C0220F331F441F551F6A95D2F7215051
:102830003040404050402A213B214C215D21211550
:1028400031054105510521F021E030E040E050E044
:1028500059016A01A628B728C828D9280BC08215B3
:1028600093052CF01C01AA24BB24650103C0EE24AF
:10287000FF24870111969C91D20111968C91981793
:1028800009F445C0992339F0A80197012A193B0999
:102890004C095D0906C0A60195012E193F09400BA0
:1028A000510B57FD08C01182338222822483358365
:1028B000468357831DC081E081833382228288272B
:1028C0009927DC01821B930BA40BB50B84839583A2
:1028D000A683B7830DC0220F331F441F551F2483C7
:1028E00035834683578382819381019793838283C3
:1028F0002481358146815781DA01C9010197A109F7
:10290000B1098F5F9F4FAF4FBF4328F30BC0918337
:1029100033822282EA0CFB1C0C1D1D1DE482F58211
:102920000683178383E08083248135814681578124
:1029300057FF1AC0C901AA2797FDA095BA2F817029
:102940009070A070B0705695479537952795822B5B
:10295000932BA42BB52B84839583A683B783828185
:102960009381019693838283DF0101C0D201CD015F
:10297000CDB7DEB7E2E10C94411BA0E2B0E0E3EC9E
:10298000F4E10C94311B69837A838B839C832D83C0
:102990003E834F835887E9E0EE2EF12CEC0EFD1EAE
:1029A000CE010196B7010E9470198E010F5E1F4F74
:1029B000CE010596B8010E9470198A8991E0892795
:1029C0008A8BC701B801AE01475E5F4F0E94711349
:1029D0000E949B18A096E6E00C944D1BA0E2B0E08C
:1029E000E4EFF4E10C94311B69837A838B839C833D
:1029F0002D833E834F835887F9E0EF2EF12CEC0EA8
:102A0000FD1ECE010196B7010E9470198E010F5E66
:102A10001F4FCE010596B8010E947019C701B80179
:102A2000AE01475E5F4F0E9471130E949B18A096F3
:102A3000E6E00C944D1BA0E2B0E0E1E2F5E10C947D
:102A4000251B69837A838B839C832D833E834F83ED
:102A50005887CE010196BE01675F7F4F0E947019B3
:102A6000CE010596BE016F5E7F4F0E947019998559
:102A7000923088F089898230C8F0943019F482301D
:102A800051F404C0843029F4923081F487E191E05C
:102A9000C6C0923049F420E09A858A89981321E0D3
:102AA0002A87CE010996BBC0823049F420E09A857E
:102AB0008A89981321E02A8BCE014196B0C02D84DB
:102AC0003E844F8458886D887E888F88988CEE2449
:102AD000FF248701AA24BB24650140E050E060E0A8
:102AE00070E0E0E0F0E0C10181709070892BE9F0C6
:102AF000E60CF71C081D191D9A01AB012A0D3B1DA0
:102B00004C1D5D1D80E090E0A0E0B0E0E614F7040D
:102B10000805190520F481E090E0A0E0B0E0BA01DA
:102B2000A901480F591F6A1F7B1FAA0CBB1CCC1C94
:102B3000DD1C97FE08C081E090E0A0E0B0E0A82A8C
:102B4000B92ACA2ADB2A3196E032F10549F0660C2F
:102B5000771C881C991C5694479437942794C3CFAC
:102B6000FA85EA892B893C898B859C85280F391F3A
:102B70002E5F3F4F17C0CA0181709070892B61F0A2
:102B800016950795F794E79480E090E0A0E0B0E810
:102B9000E82AF92A0A2B1B2B7695679557954795B6
:102BA0002F5F3F4F77FDE7CF0CC0440F551F661FC7
:102BB000771F17FD4160EE0CFF1C001F111F2150F5
:102BC0003040403090E0590790E0690790E4790781
:102BD00060F32B8F3C8FDB01CA018F779070A07060
:102BE000B07080349105A105B10561F447FD0AC0BC
:102BF000E114F1040105110529F0405C5F4F6F4FAE
:102C00007F4F40781A8EFE1711F081E08A8F4D8F2A
:102C10005E8F6F8F78A383E0898FCE0149960E94E3
:102C20009B18A096E2E10C94411BA8E1B0E0EBE117
:102C3000F6E10C942D1B69837A838B839C832D830F
:102C40003E834F835887B9E0EB2EF12CEC0EFD1E2E
:102C5000CE010196B7010E9470198E010F5E1F4FC1
:102C6000CE010596B8010E9470192985223008F41A
:102C70007EC03989323010F4B8017CC08A859A89C7
:102C800089278A87243011F0223031F4231709F084
:102C90006EC067E171E06EC0343039F41D861E8667
:102CA0001F86188A1C861B8604C0323021F484E0FB
:102CB0008987B7015FC02B853C858B899C89281B40
:102CC000390B3C872B87ED84FE840F851889AD88EE
:102CD000BE88CF88D88CEA14FB040C051D0540F48F
:102CE000EE0CFF1C001F111F215030403C872B872A
:102CF00020E030E040E050E080E090E0A0E0B0E490
:102D000060E070E0EA14FB040C051D0540F0282B80
:102D1000392B4A2B5B2BEA18FB080C091D09B695C9
:102D2000A79597958795EE0CFF1C001F111F6F5FED
:102D30007F4F6F31710531F7DA01C9018F779070DC
:102D4000A070B07080349105A105B10561F427FD34
:102D50000AC0E114F1040105110529F0205C3F4F80
:102D60004F4F5F4F20782D873E874F87588BBE018E
:102D7000675F7F4FCB010E949B186896EAE00C9436
:102D8000491BA8E1B0E0E7ECF6E10C94311B698344
:102D90007A838B839C832D833E834F83588789E07E
:102DA000E82EF12CEC0EFD1ECE010196B7010E941B
:102DB00070198E010F5E1F4FCE010596B8010E945B
:102DC00070198985823040F08989823028F0C701E6
:102DD000B8010E94E81901C08FEF6896E6E00C94F4
:102DE0004D1BA8E1B0E0E7EFF6E10C94311B6983DD
:102DF0007A838B839C832D833E834F83588789E01E
:102E0000E82EF12CEC0EFD1ECE010196B7010E94BA
:102E100070198E010F5E1F4FCE010596B8010E94FA
:102E200070198985823040F08989823028F0C70185
:102E3000B8010E94E81901C081E06896E6E00C94B0
:102E40004D1BA8E0B0E0E7E2F7E10C942E1B9B01DC
:102E5000AC0183E08983DA01C9018827B7FD839536
:102E60009927AA27BB27B82E211531054105510501
:102E700019F482E089833AC08823A9F0203080E0E9
:102E8000380780E0480780E8580729F460E070E0E0
:102E900080E09FEC30C0EE24FF248701E21AF30AA1
:102EA000040B150B02C079018A018EE1C82ED12CCA
:102EB000DC82CB82ED82FE820F831887C801B701C6
:102EC0000E944C1801971816190684F4082E04C0A5
:102ED000EE0CFF1C001F111F0A94D2F7ED82FE8238
:102EE0000F831887C81AD90ADC82CB82BA82CE0136
:102EF00001960E949B182896E9E00C944A1BACE0CE
:102F0000B0E0E5E8F7E10C94351B69837A838B83A5
:102F10009C83CE010196BE016B5F7F4F0E947019AA
:102F20008D81823061F1823050F1843021F48E81C4
:102F3000882351F12EC02F81388537FD20C06E8146
:102F40002F3131051CF06623F9F023C08EE190E0AB
:102F5000821B930B29853A854B855C8504C0569569
:102F60004795379527958A95D2F76623B1F0509506
:102F70004095309521953F4F4F4F5F4F0EC020E059
:102F800030E040E050E009C02FEF3FEF4FEF5FE748
:102F900004C020E030E040E050E8B901CA012C96BE
:102FA000E2E00C94511BA8E0B0E0E9EDF7E10C94ED
:102FB0002D1B7B018C01611571058105910519F4AB
:102FC00082E0898360C083E089838EE1C82ED12CA2
:102FD000DC82CB82ED82FE820F831887C801B701A5
:102FE0000E944C18FC013197F7FF3BC02227332782
:102FF0002E1B3F0B57016801022E04C0D694C794C4
:10300000B794A7940A94D2F740E050E060E070E0F3
:1030100081E090E0A0E0B0E004C0880F991FAA1FF3
:10302000BB1F2A95D2F70197A109B1098E219F21D3
:10303000A023B1230097A105B10521F041E050E0A4
:1030400060E070E04A295B296C297D294D835E830D
:103050006F8378878EE190E08E1B9F0B9C838B8320
:1030600012C0309781F00E2E04C0EE0CFF1C001F22
:10307000111F0A94D2F7ED82FE820F831887CE1AB1
:10308000DF0ADC82CB821A82CE0101960E949B1855
:103090002896EAE00C94491BEF92FF920F931F933E
:1030A0007B018C0180E0E81680E0F80681E00807EB
:1030B00080E0180788F48FEFE816F1040105110588
:1030C00031F028F088E090E0A0E0B0E017C080E0A8
:1030D00090E0A0E0B0E012C080E0E81680E0F806E2
:1030E00080E0080781E0180728F088E190E0A0E080
:1030F000B0E004C080E190E0A0E0B0E020E230E089
:1031000040E050E0281B390B4A0B5B0B04C01695BE
:103110000795F794E7948A95D2F7F701E15EFE4FA1
:103120008081281B310941095109C9011F910F9163
:10313000FF90EF900895DF92EF92FF920F931F930D
:10314000FC01E480F58006811781D1808081823086
:1031500048F480E090E0A0E1B0E0E82AF92A0A2BE8
:103160001B2BA5C0843009F49FC0823021F4EE24CB
:10317000FF24870105C0E114F1040105110519F4CC
:10318000E0E0F0E096C0628173819FEF62387907DA
:103190000CF05BC022E83FEF261B370B2A313105CC
:1031A0002CF020E030E040E050E02AC0B801A70158
:1031B000022E04C076956795579547950A94D2F7E5
:1031C00081E090E0A0E0B0E004C0880F991FAA1F42
:1031D000BB1F2A95D2F70197A109B1098E219F2122
:1031E000A023B1230097A105B10521F081E090E073
:1031F000A0E0B0E09A01AB01282B392B4A2B5B2BC6
:10320000DA01C9018F779070A070B0708034910599
:10321000A105B10539F427FF09C0205C3F4F4F4F8E
:103220005F4F04C0215C3F4F4F4F5F4FE0E0F0E045
:103230002030A0E03A07A0E04A07A0E45A0710F0C7
:10324000E1E0F0E079018A0127C06038710564F59A
:10325000FB01E158FF4FD801C7018F779070A07034
:10326000B07080349105A105B10539F4E7FE0DC0B9
:1032700080E490E0A0E0B0E004C08FE390E0A0E044
:10328000B0E0E80EF91E0A1F1B1F17FF05C01695B8
:103290000795F794E794319687E016950795F7948C
:1032A000E7948A95D1F705C0EE24FF248701EFEF5C
:1032B000F0E06E2F679566276795902F9F77D794DC
:1032C000DD24D7948E2F8695492F462B582F5D29C4
:1032D000B701CA011F910F91FF90EF90DF90089501
:1032E000FC01DB01408151812281622F6F7770E008
:1032F000221F2227221F9381892F880F822B282F9C
:1033000030E0991F9927991F11969C9311972115C9
:103310003105A9F5411551056105710511F482E0EA
:1033200037C082E89FEF13969C938E9312979A0171
:10333000AB0167E0220F331F441F551F6A95D1F779
:1033400083E08C930DC0220F331F441F551F12962C
:103350008D919C911397019713969C938E9312973E
:10336000203080E0380780E0480780E4580758F3B1
:1033700014962D933D934D935C93179708952F3F8B
:10338000310579F4411551056105710519F484E0A1
:103390008C93089564FF03C081E08C9312C01C924B
:1033A00010C02F57304013963C932E93129783E012
:1033B0008C9387E0440F551F661F771F8A95D1F7BE
:1033C000706414964D935D936D937C931797089555
:1033D0001F93DC01FB019C91923008F447C080816F
:1033E000823008F443C0943051F411961C9184301B
:1033F00099F58181682F70E0611B71093FC08430AD
:1034000021F0923031F48230B9F18181882389F141
:103410002DC011961C9111978230F1F081811817FF
:10342000D9F412962D913C91139782819381821742
:10343000930794F028173907BCF014968D919D914D
:103440000D90BC91A02D248135814681578128178C
:1034500039074A075B0718F4112341F00AC08217A5
:103460009307A407B50740F4112319F061E070E059
:1034700005C06FEF7FEF02C060E070E0CB011F91ED
:103480000895A0E0B0E0E7E4FAE10C942D1BEC0114
:10349000A880B980CA80DB80A114B104C104D10422
:1034A00041F484E2A82E89EDB82E8BE5C82E87E082
:1034B000D82EC601B5012DE133EF41E050E00E9466
:1034C000F61A27EA31E440E050E00E94A21A7B019C
:1034D0008C01C601B5012DE133EF41E050E00E94BF
:1034E000F61ACA01B9012CEE34EF4FEF5FEF0E94DC
:1034F000A21A6E0D7F1D801F911F97FF04C061509F
:10350000704080409048688379838A839B839B01C5
:10351000AC015F77B901CA01CDB7DEB7EAE00C9420
:10352000491B0E94411A08958FE192E00E94411ABE
:10353000089560931F02709320028093210290935C
:1035400022020895629FD001739FF001829FE00DD7
:10355000F11D649FE00DF11D929FF00D839FF00D12
:10356000749FF00D659FF00D9927729FB00DE11DBE
:10357000F91F639FB00DE11DF91FBD01CF0111249B
:10358000089597FB092E07260AD077FD04D049D06D
:1035900006D000201AF4709561957F4F0895F6F7D4
:1035A000909581959F4F0895A1E21A2EAA1BBB1BEF
:1035B000FD010DC0AA1FBB1FEE1FFF1FA217B307FF
:1035C000E407F50720F0A21BB30BE40BF50B661F15
:1035D000771F881F991F1A9469F7609570958095D9
:1035E00090959B01AC01BD01CF01089597FB092E79
:1035F00005260ED057FD04D0D7DF0AD0001C38F4C2
:1036000050954095309521953F4F4F4F5F4F08950E
:10361000F6F790958095709561957F4F8F4F9F4FEE
:103620000895AA1BBB1B51E107C0AA1FBB1FA61709
:10363000B70710F0A61BB70B881F991F5A95A9F75B
:1036400080959095BC01CD0108952F923F924F92A5
:103650005F926F927F928F929F92AF92BF92CF9222
:10366000DF92EF92FF920F931F93CF93DF93CDB72B
:10367000DEB7CA1BDB0B0FB6F894DEBF0FBECDBFA3
:1036800009942A88398848885F846E847D848C8474
:103690009B84AA84B984C884DF80EE80FD800C817D
:1036A0001B81AA81B981CE0FD11D0FB6F894DEBF60
:1036B0000FBECDBFED010895EE0FFF1F0590F491F1
:0836C000E02D0994F894FFCFFE
:1036C800000000004505DC0508062E00000000008B
:1036D800B40CDC0508060100000000000000000032
:1036E800010202030303030404040404040404059C
:1036F8000505050505050505050505050505050671
:103708000606060606060606060606060606060651
:103718000606060606060606060606060606060740
:103728000707070707070707070707070707070721
:103738000707070707070707070707070707070711
:103748000707070707070707070707070707070701
:1037580007070707070707070707070707070708F0
:1037680008080808080808080808080808080808D1
:1037780008080808080808080808080808080808C1
:1037880008080808080808080808080808080808B1
:1037980008080808080808080808080808080808A1
:1037A8000808080808080808080808080808080891
:1037B8000808080808080808080808080808080881
:1037C8000808080808080808080808080808080871
:1037D8000808080808080808080808080808080168
:0437E80000000000DD
:00000001FF
